:020000040800F2
:10000000B806002029020008830900087B090008BF
:100010007F090008E3020008D50E00080000000078
:100020000000000000000000000000008709000838
:10003000E70200080000000085090008890900089F
:10004000430200084302000843020008430200087C
:10005000430200084302000843020008430200086C
:10006000430200084302000843020008430200085C
:10007000430200084302000843020008430200084C
:10008000430200084302000843020008430200083C
:10009000430200084302000843020008430200082C
:1000A000430200084302000843020008430200081C
:1000B000430200084302000843020008430200080C
:1000C00043020008430200084302000843020008FC
:1000D000430200084302000843020008B90E00086A
:1000E00043020008430200084302000843020008DC
:1000F00043020008430200084302000843020008CC
:1001000043020008430200084302000843020008BB
:1001100043020008430200084302000843020008AB
:10012000430200084302000843020008430200089B
:10013000430200084302000843020008430200088B
:10014000430200084302000843020008430200087B
:10015000430200084302000843020008430200086B
:10016000430200084302000843020008430200085B
:100170004302000843020008430200080000000098
:10018000430200084302000800F002F800F03CF8C7
:100190000AA090E8000C82448344AAF10107DA45E2
:1001A00001D100F031F8AFF2090EBAE80F0013F0F8
:1001B000010F18BFFB1A43F0010318476C0E000033
:1001C0008C0E0000103A24BF78C878C1FAD85207C4
:1001D00024BF30C830C144BF04680C6070470000C1
:1001E0000023002400250026103A28BF78C1FBD840
:1001F000520728BF30C148BF0B6070471FB500F0E1
:1002000001FF1FBD10B510BD00F031F81146FFF71A
:10021000F5FF00F0EFFE00F04FF803B4FFF7F2FF38
:1002200003BC00F057F80000094880470948004720
:10023000FEE7FEE7FEE7FEE7FEE7FEE7FEE7FEE796
:10024000FEE7FEE704480549054A064B70470000F3
:100250009509000889010008B8000020B8060020B0
:10026000B8020020B80200207047704770477546FA
:1002700000F02CF8AE4605006946534620F0070012
:10028000854618B020B5FFF7DDFFBDE820404FF0F0
:1002900000064FF000074FF000084FF0000B21F070
:1002A0000701AC46ACE8C009ACE8C009ACE8C0093D
:1002B000ACE8C0098D46704710B50446AFF3008026
:1002C0002046BDE81040FFF7A8BF00000048704777
:1002D0005400002001491820ABBEFEE726000200B2
:1002E000704700BFFEE77047014691F835000228CD
:1002F00003D08020486501207047052081F8350033
:100300000868006820F001000A6810600020F3E728
:10031000F8B502460B460025002400200021DCE051
:10032000012606FA01F51E6806EA0504AC4273D1FF
:100330005E68022E02D05E68122E13D1CF0802F141
:10034000200656F827004E07F70E0F26BE40B04392
:100350004F07FF0E1E69BE403043CF0802F1200652
:1003600046F8270010684F000326BE40B0431E79B0
:1003700006F003064F00BE40304310605E68012E59
:1003800008D05E68022E05D05E68112E02D05E682D
:10039000122E13D190684F000326BE40B0434F0089
:1003A000DE68BE4030439060506801268E40B04306
:1003B0001E79C6F300168E4030435060D0684F005F
:1003C0000326BE40B0434F009E68BE403043D0601D
:1003D0005E6806F08056B6F1805F7DD100BF0026D2
:1003E0000096404E366846F480463E4F3E603E469C
:1003F000366806F48046009600BF00BF3A4E8F086C
:1004000056F827008E07370F0F26BE40B043374EF1
:10041000B24202D1002624E05EE0354EB24201D164
:1004200001261EE0334EB24201D1022619E0324EBF
:10043000B24201D1032614E0304EB24201D104266B
:100440000FE02F4EB24201D105260AE02D4EB242F6
:1004500001D1062605E02C4EB24201D1072600E06C
:1004600008268F073F0FBE4030431F4E8F0846F8C7
:100470002700264E3068A0435E6806F48036B6F545
:10048000803F00D12043214E3060361D3068A043AC
:100490005E6806F40036B6F5003F00D120431B4EDF
:1004A000361D3060361D3068A0435E6806F4801645
:1004B000B6F5801F00D12043144E08363060361D3B
:1004C0003068A0435E6806F40016B6F5001F00D140
:1004D00020430E4E0C363060491C1029FFF420AF2B
:1004E000F8BD0000443802400838014000000240D6
:1004F0000004024000080240000C024000100240CC
:100500000014024000180240001C0240003C014060
:1005100003480068034909780844014908607047A6
:10052000080000201000002010B50D48006840F4BD
:1005300000700B4908600846006840F4806008605D
:100540000846006840F480700860032000F070F8EE
:100550000F2000F007F800F02BF8002010BD00007D
:10056000003C024070B504460E4800784FF47A71A2
:10057000B1FBF0F00C490968B1FBF0F5284600F03A
:1005800092F808B1012070BD102C07D2002221463C
:10059000501E00F00EF80548046001E00120F2E76B
:1005A0000020F0E710000020040000200C000020D4
:1005B00070472DE9F05F80460D461646002700F093
:1005C0008BFC074639462A46334601F00700C0F146
:1005D000070ABAF1040F02D94FF0040A01E0C0F192
:1005E000070AD14600F1040ABAF1070F02D24FF010
:1005F000000A01E0A0F1030AD4464FF0010A0AFA0A
:1006000009FAAAF1010A0AEA020A0AFA0CFA4FF0F8
:10061000010B0BFA0CFBABF1010B0BEA030B4AEAE3
:100620000B042146404600F05FFCBDE8F09F00004F
:1006300000BF00F00702064B19684FF6FF03194090
:10064000044B0B4343EA0221014B196000BF704782
:100650000CED00E00000FA0501480068704700005A
:100660000400002000B5FFF7F7FF04490968C1F353
:100670008221034A515CC84000BD00000838024096
:100680001E10000800B5FFF7E7FF04490968C1F331
:100690004231034A515CC84000BD000008380240A6
:1006A0001E100008704770B504462546681EB0F15C
:1006B000807F01D301200FE0681E4FF0E0214861E8
:1006C0000F214FF0FF3000F00FFC00204FF0E02131
:1006D000886107200861002070BD10B5FFF7E2FFB8
:1006E00010BD70472DE9F047044620680568206872
:1006F000C668206847694FF00008C14605F00F083A
:10070000B8F1000F0AD105F0200038B106F0200042
:1007100020B1204600F09AF9BDE8F087B8F1000F4B
:100720006DD007F0010018B906F49070002866D06B
:1007300005F0010030B106F4807018B1E06B40F0B4
:100740000100E06305F0040030B107F0010018B1CA
:10075000E06B40F00200E06305F0020030B107F00A
:10076000010018B1E06B40F00400E06305F0080000
:1007700030B107F0010018B1E06B40F00800E06311
:10078000E06B68B305F0200028B106F0200010B13E
:10079000204600F05BF920684069C0F38019E06BE7
:1007A00000F0080010B9B9F1000F22D0204600F087
:1007B0002DF92068406900F04000B0B12068406920
:1007C00020F0400021684861606B50B11748616BB0
:1007D0000865606BFFF788FD10B1606B016D88479D
:1007E0000CE02046FFF77DFF08E02046FFF779FF89
:1007F00004E02046FFF775FF0020E0638CE705F07A
:10080000800030B106F0800018B1204600F020FBD7
:1008100082E705F0400030B106F0400018B12046F4
:1008200000F004F978E700BF76E70000F909000856
:1008300010B504460CB9012010BDA06900B100E05C
:1008400000BF94F8390028B9002084F83800204609
:1008500000F027F8242084F839002068C06820F4CC
:1008600000502168C860204600F03EF92068006909
:1008700020F49040216808612068406920F02A0037
:10088000216848612068C06840F400502168C86051
:100890000020E063202084F8390084F83A0000202A
:1008A000CAE7704710B5034693F83A00202829D1CB
:1008B00001B10AB9012010BD00BF93F8380001282A
:1008C00001D10220F7E7012083F8380000BF9962C8
:1008D0009A85DA850020D863222083F83A0000BF89
:1008E000002083F8380000BF1868406940F001001C
:1008F0001C6860611868C06840F490701C68E06013
:100900000020D8E70220D6E710B5044601220249AC
:10091000024800F005F810BD00000020140000207F
:1009200010B5034693F83900202823D101B10AB944
:10093000012010BD00BF93F83800012801D102202A
:10094000F7E7012083F8380000BF19629A84DA843F
:100950000020D863212083F8390000BF002083F8ED
:10096000380000BF1868C06840F080001C68E06074
:100970000020DEE70220DCE7704700BFFEE700BF93
:10098000FEE770477047704710B5FFF7C1FDFFF7EE
:10099000A4FE10BD1448006840F4700012490860BD
:1009A0001248006840F001001049086000200F491B
:1009B000083108600D4800680D4908400B4908607F
:1009C0000C48091D0860081F006820F48020091FDA
:1009D0000860002005490C3108604FF000600249B2
:1009E000803908607047000088ED00E00038024060
:1009F000FFFFF6FE1030002470B50546AC6B0020FA
:100A0000E085E0842046FFF76CFE70BD0168C96890
:100A100021F490710268D1600168496921F00101F7
:100A200002685161202180F83A10704710B50446E1
:100A30002068C06820F040002168C860202084F849
:100A400039002046FFF798FF002010BD70B504461E
:100A500094F83A00222844D1A068B0F5805F13D101
:100A6000A56A206940B920684068C0F30800288062
:100A7000A06A801CA06219E020684068C0B228808B
:100A8000A06A401CA06211E0206938B92068406863
:100A9000C1B2A26A501CA062117007E020684068D1
:100AA00000F07F01A26A501CA0621170E08D401E10
:100AB00080B2E08598B92068C06820F49070216801
:100AC000C8602068406920F001002168486120204A
:100AD00084F83A002046FFF717FF002070BD002081
:100AE000FCE70220FAE700002DE9F041044600256A
:100AF0002068056925F44055E068054320680561D4
:100B00002068C56849F20C6085432169A0680843E4
:100B100061690843E169084305432068C5602068AE
:100B2000456925F44075A069054320684561E06981
:100B3000B0F5004F7ED1C4492068884203D0C34934
:100B4000206888425DD1FFF79DFD00EBC00101EBFD
:100B5000001061684900B0FBF1F06421B0FBF1F0D6
:100B60000601FFF78FFD00EBC00101EB001061688B
:100B70004900B0FBF1F7FFF785FD00EBC00101EB89
:100B8000001061684900B0FBF1F06421B0FBF1F0A6
:100B900000EBC00101EB0010A7EB8000322101EB5C
:100BA000C0006421B0FBF1F000F0F80006EB400655
:100BB000FFF768FD00EBC00101EB00106168490020
:100BC000B0FBF1F7FFF75EFD00EBC00101EB001099
:100BD00061684900B0FBF1F06421B0FBF1F000EB7B
:100BE000C00101EB0010A7EB8000322101EBC00037
:100BF0006421B0FBF1F000F0070030442168886008
:100C000020E1FFF72FFD00EBC00101EB0010616850
:100C10004900B0FBF1F06421B0FBF1F00601FFF7F1
:100C200021FD00EBC00101EB001061684900B0FB41
:100C3000F1F700E045E0FFF715FD00EBC00101EB27
:100C4000001061684900B0FBF1F06421B0FBF1F0E5
:100C500000EBC00101EB0010A7EB8000322101EB9B
:100C6000C0006421B0FBF1F000F0F80006EB400694
:100C7000FFF7F8FC00EBC00101EB001061684900D0
:100C8000B0FBF1F7FFF7EEFC00EBC00101EB001049
:100C900061684900B0FBF1F06421B0FBF1F000EBBA
:100CA000C00101EB0010A7EB8000322101EBC00076
:100CB0006421B0FBF1F000F0070030442168886047
:100CC000C0E061492068884203D0604920688842BA
:100CD0005CD1FFF7D7FC00EBC00101EB00106168AD
:100CE0008900B0FBF1F6FFF7CDFC00EBC00101EB92
:100CF000001061688900B0FBF1F06421B0FBF1F0F5
:100D000000EBC00101EB0010A6EB8000322101EBEB
:100D100000106421B0FBF1F000F0F006FFF7B2FC28
:100D200000EBC00101EB001061688900B0FBF1F03D
:100D30006421B0FBF1F006EB0016FFF7A3FC00EB1B
:100D4000C00101EB001061688900B0FBF1F7FFF70B
:100D500099FC00EBC00101EB001061688900B0FB59
:100D6000F1F06421B0FBF1F000EBC00101EB0010E9
:100D7000A7EB8000322101EB00106421B0FBF1F001
:100D800000F00F003044216888605BE0FFF76AFCE8
:100D900000EBC00101EB001061688900B0FBF1F6C7
:100DA000FFF760FC00EBC00101EB001061688900F7
:100DB000B0FBF1F06421B0FBF1F000EBC00101EBFE
:100DC0000010A6EB8000322101EB00106421B0FB83
:100DD000F1F000F0F006FFF745FC00EBC00101EB7D
:100DE000001061688900B0FBF1F06421B0FBF1F004
:100DF00006EB0016FFF736FC00EBC00101EB00101C
:100E000061688900B0FBF1F7FFF72CFC00EBC00133
:100E100001EB001061688900B0FBF1F06421B0FBC8
:100E2000F1F000EBC00101EB0010A7EB80003221D4
:100E300001EB00106421B0FBF1F000F00F00304432
:100E400021688860BDE8F081001001400014014075
:100E5000014691F8390021282CD18868B0F5805FCF
:100E60000FD10A6A1088C0F308000B68586008693F
:100E700018B9086A801C086209E0086A401C086208
:100E800005E00B6A581C086218780B685860C88C1B
:100E9000401E80B2C88458B90868C06820F080003D
:100EA0000B68D8600868C06840F040000B68D860E4
:100EB000002070470220FCE710B50448FFF712FC41
:100EC000012203490148FFF7EDFC10BD140000208A
:100ED0000000002000BFFEE702480068C0F30220C7
:100EE000704700000CED00E010B5002804DB0A0795
:100EF000130E054A135406E00A07140E034A00F0C5
:100F00000F031B1FD45410BD00E400E018ED00E0F7
:100F100000B587B000BF002001900E48006840F087
:100F200002000C4908600846006800F002000190C9
:100F300000BF00BF4FF440600290022003900120E8
:100F400004900720069002A90348FFF7E1F907B0D3
:100F500000BD0000303802400004024008B500BF68
:100F6000002000902048006840F480201E4908605E
:100F70000846006800F48020009000BF00BF1B48B6
:100F80001B4908604FF416504860002118488160E2
:100F9000C16001610C21416100218161C161FFF7E4
:100FA00047FC08B100BFFEE72720002809DB00F05E
:100FB0001F02012191404209920002F1E022C2F891
:100FC000001100BF0A480068C06840F020000849CE
:100FD0000968C86006480068C06840F040000449DD
:100FE0000968C86008BD0000403802400048004061
:100FF00014000020FFF798FAFFF78AFFFFF7AEFF13
:1010000000BFFEE74FF04070E1EE100A70470000AD
:1010100000000000000001020304060708090000A8
:101020000000010203040000481000080000002036
:1010300014000000C40100085C1000081400002027
:10104000A4060000E0010008000000000024F400F5
:0C10500000000000100000000100000083
:040000050800018965
:00000001FF
